{
  "contractName": "SwordToken",
  "abi": [
    {
      "inputs": [
        {
          "internalType": "string",
          "name": "_name",
          "type": "string"
        },
        {
          "internalType": "string",
          "name": "_symbol",
          "type": "string"
        }
      ],
      "stateMutability": "nonpayable",
      "type": "constructor"
    },
    {
      "anonymous": false,
      "inputs": [
        {
          "indexed": true,
          "internalType": "address",
          "name": "owner",
          "type": "address"
        },
        {
          "indexed": true,
          "internalType": "address",
          "name": "approved",
          "type": "address"
        },
        {
          "indexed": true,
          "internalType": "uint256",
          "name": "tokenId",
          "type": "uint256"
        }
      ],
      "name": "Approval",
      "type": "event"
    },
    {
      "anonymous": false,
      "inputs": [
        {
          "indexed": true,
          "internalType": "address",
          "name": "owner",
          "type": "address"
        },
        {
          "indexed": true,
          "internalType": "address",
          "name": "operator",
          "type": "address"
        },
        {
          "indexed": false,
          "internalType": "bool",
          "name": "approved",
          "type": "bool"
        }
      ],
      "name": "ApprovalForAll",
      "type": "event"
    },
    {
      "anonymous": false,
      "inputs": [
        {
          "indexed": true,
          "internalType": "address",
          "name": "owner",
          "type": "address"
        },
        {
          "indexed": false,
          "internalType": "uint256",
          "name": "id",
          "type": "uint256"
        },
        {
          "indexed": false,
          "internalType": "uint256",
          "name": "dna",
          "type": "uint256"
        }
      ],
      "name": "NewSword",
      "type": "event"
    },
    {
      "anonymous": false,
      "inputs": [
        {
          "indexed": true,
          "internalType": "address",
          "name": "previousOwner",
          "type": "address"
        },
        {
          "indexed": true,
          "internalType": "address",
          "name": "newOwner",
          "type": "address"
        }
      ],
      "name": "OwnershipTransferred",
      "type": "event"
    },
    {
      "anonymous": false,
      "inputs": [
        {
          "indexed": true,
          "internalType": "address",
          "name": "from",
          "type": "address"
        },
        {
          "indexed": true,
          "internalType": "address",
          "name": "to",
          "type": "address"
        },
        {
          "indexed": true,
          "internalType": "uint256",
          "name": "tokenId",
          "type": "uint256"
        }
      ],
      "name": "Transfer",
      "type": "event"
    },
    {
      "inputs": [
        {
          "internalType": "address",
          "name": "to",
          "type": "address"
        },
        {
          "internalType": "uint256",
          "name": "tokenId",
          "type": "uint256"
        }
      ],
      "name": "approve",
      "outputs": [],
      "stateMutability": "nonpayable",
      "type": "function"
    },
    {
      "inputs": [
        {
          "internalType": "address",
          "name": "owner",
          "type": "address"
        }
      ],
      "name": "balanceOf",
      "outputs": [
        {
          "internalType": "uint256",
          "name": "",
          "type": "uint256"
        }
      ],
      "stateMutability": "view",
      "type": "function",
      "constant": true
    },
    {
      "inputs": [
        {
          "internalType": "uint256",
          "name": "tokenId",
          "type": "uint256"
        }
      ],
      "name": "getApproved",
      "outputs": [
        {
          "internalType": "address",
          "name": "",
          "type": "address"
        }
      ],
      "stateMutability": "view",
      "type": "function",
      "constant": true
    },
    {
      "inputs": [
        {
          "internalType": "address",
          "name": "owner",
          "type": "address"
        },
        {
          "internalType": "address",
          "name": "operator",
          "type": "address"
        }
      ],
      "name": "isApprovedForAll",
      "outputs": [
        {
          "internalType": "bool",
          "name": "",
          "type": "bool"
        }
      ],
      "stateMutability": "view",
      "type": "function",
      "constant": true
    },
    {
      "inputs": [],
      "name": "name",
      "outputs": [
        {
          "internalType": "string",
          "name": "",
          "type": "string"
        }
      ],
      "stateMutability": "view",
      "type": "function",
      "constant": true
    },
    {
      "inputs": [],
      "name": "owner",
      "outputs": [
        {
          "internalType": "address",
          "name": "",
          "type": "address"
        }
      ],
      "stateMutability": "view",
      "type": "function",
      "constant": true
    },
    {
      "inputs": [
        {
          "internalType": "uint256",
          "name": "tokenId",
          "type": "uint256"
        }
      ],
      "name": "ownerOf",
      "outputs": [
        {
          "internalType": "address",
          "name": "",
          "type": "address"
        }
      ],
      "stateMutability": "view",
      "type": "function",
      "constant": true
    },
    {
      "inputs": [],
      "name": "renounceOwnership",
      "outputs": [],
      "stateMutability": "nonpayable",
      "type": "function"
    },
    {
      "inputs": [
        {
          "internalType": "address",
          "name": "from",
          "type": "address"
        },
        {
          "internalType": "address",
          "name": "to",
          "type": "address"
        },
        {
          "internalType": "uint256",
          "name": "tokenId",
          "type": "uint256"
        }
      ],
      "name": "safeTransferFrom",
      "outputs": [],
      "stateMutability": "nonpayable",
      "type": "function"
    },
    {
      "inputs": [
        {
          "internalType": "address",
          "name": "from",
          "type": "address"
        },
        {
          "internalType": "address",
          "name": "to",
          "type": "address"
        },
        {
          "internalType": "uint256",
          "name": "tokenId",
          "type": "uint256"
        },
        {
          "internalType": "bytes",
          "name": "data",
          "type": "bytes"
        }
      ],
      "name": "safeTransferFrom",
      "outputs": [],
      "stateMutability": "nonpayable",
      "type": "function"
    },
    {
      "inputs": [
        {
          "internalType": "address",
          "name": "operator",
          "type": "address"
        },
        {
          "internalType": "bool",
          "name": "approved",
          "type": "bool"
        }
      ],
      "name": "setApprovalForAll",
      "outputs": [],
      "stateMutability": "nonpayable",
      "type": "function"
    },
    {
      "inputs": [
        {
          "internalType": "bytes4",
          "name": "interfaceId",
          "type": "bytes4"
        }
      ],
      "name": "supportsInterface",
      "outputs": [
        {
          "internalType": "bool",
          "name": "",
          "type": "bool"
        }
      ],
      "stateMutability": "view",
      "type": "function",
      "constant": true
    },
    {
      "inputs": [
        {
          "internalType": "uint256",
          "name": "",
          "type": "uint256"
        }
      ],
      "name": "swords",
      "outputs": [
        {
          "internalType": "string",
          "name": "name",
          "type": "string"
        },
        {
          "internalType": "uint256",
          "name": "id",
          "type": "uint256"
        },
        {
          "internalType": "uint256",
          "name": "dna",
          "type": "uint256"
        },
        {
          "internalType": "uint8",
          "name": "level",
          "type": "uint8"
        },
        {
          "internalType": "uint8",
          "name": "rarity",
          "type": "uint8"
        }
      ],
      "stateMutability": "view",
      "type": "function",
      "constant": true
    },
    {
      "inputs": [],
      "name": "symbol",
      "outputs": [
        {
          "internalType": "string",
          "name": "",
          "type": "string"
        }
      ],
      "stateMutability": "view",
      "type": "function",
      "constant": true
    },
    {
      "inputs": [
        {
          "internalType": "uint256",
          "name": "tokenId",
          "type": "uint256"
        }
      ],
      "name": "tokenURI",
      "outputs": [
        {
          "internalType": "string",
          "name": "",
          "type": "string"
        }
      ],
      "stateMutability": "view",
      "type": "function",
      "constant": true
    },
    {
      "inputs": [
        {
          "internalType": "address",
          "name": "from",
          "type": "address"
        },
        {
          "internalType": "address",
          "name": "to",
          "type": "address"
        },
        {
          "internalType": "uint256",
          "name": "tokenId",
          "type": "uint256"
        }
      ],
      "name": "transferFrom",
      "outputs": [],
      "stateMutability": "nonpayable",
      "type": "function"
    },
    {
      "inputs": [
        {
          "internalType": "address",
          "name": "newOwner",
          "type": "address"
        }
      ],
      "name": "transferOwnership",
      "outputs": [],
      "stateMutability": "nonpayable",
      "type": "function"
    },
    {
      "inputs": [
        {
          "internalType": "uint256",
          "name": "_fee",
          "type": "uint256"
        }
      ],
      "name": "updateFee",
      "outputs": [],
      "stateMutability": "nonpayable",
      "type": "function"
    },
    {
      "inputs": [],
      "name": "withdraw",
      "outputs": [],
      "stateMutability": "payable",
      "type": "function",
      "payable": true
    },
    {
      "inputs": [
        {
          "internalType": "string",
          "name": "_name",
          "type": "string"
        }
      ],
      "name": "createRandomSword",
      "outputs": [],
      "stateMutability": "payable",
      "type": "function",
      "payable": true
    },
    {
      "inputs": [],
      "name": "getSwords",
      "outputs": [
        {
          "components": [
            {
              "internalType": "string",
              "name": "name",
              "type": "string"
            },
            {
              "internalType": "uint256",
              "name": "id",
              "type": "uint256"
            },
            {
              "internalType": "uint256",
              "name": "dna",
              "type": "uint256"
            },
            {
              "internalType": "uint8",
              "name": "level",
              "type": "uint8"
            },
            {
              "internalType": "uint8",
              "name": "rarity",
              "type": "uint8"
            }
          ],
          "internalType": "struct SwordToken.Sword[]",
          "name": "",
          "type": "tuple[]"
        }
      ],
      "stateMutability": "view",
      "type": "function",
      "constant": true
    },
    {
      "inputs": [
        {
          "internalType": "address",
          "name": "_owner",
          "type": "address"
        }
      ],
      "name": "getOwnerSwords",
      "outputs": [
        {
          "components": [
            {
              "internalType": "string",
              "name": "name",
              "type": "string"
            },
            {
              "internalType": "uint256",
              "name": "id",
              "type": "uint256"
            },
            {
              "internalType": "uint256",
              "name": "dna",
              "type": "uint256"
            },
            {
              "internalType": "uint8",
              "name": "level",
              "type": "uint8"
            },
            {
              "internalType": "uint8",
              "name": "rarity",
              "type": "uint8"
            }
          ],
          "internalType": "struct SwordToken.Sword[]",
          "name": "",
          "type": "tuple[]"
        }
      ],
      "stateMutability": "view",
      "type": "function",
      "constant": true
    }
  ],
  "bytecode": "0x6080604052662386f26fc100006008553480156200001c57600080fd5b5060405162002262380380620022628339810160408190526200003f916200019e565b818160006200004f838262000297565b5060016200005e828262000297565b5050506200007b620000756200008360201b60201c565b62000087565b505062000363565b3390565b600680546001600160a01b038381166001600160a01b0319831681179093556040519116919082907f8be0079c531659141344cd1fd0a4f28419497f9722a3daafe3b4186f6b6457e090600090a35050565b634e487b7160e01b600052604160045260246000fd5b600082601f8301126200010157600080fd5b81516001600160401b03808211156200011e576200011e620000d9565b604051601f8301601f19908116603f01168101908282118183101715620001495762000149620000d9565b816040528381526020925086838588010111156200016657600080fd5b600091505b838210156200018a57858201830151818301840152908201906200016b565b600093810190920192909252949350505050565b60008060408385031215620001b257600080fd5b82516001600160401b0380821115620001ca57600080fd5b620001d886838701620000ef565b93506020850151915080821115620001ef57600080fd5b50620001fe85828601620000ef565b9150509250929050565b600181811c908216806200021d57607f821691505b6020821081036200023e57634e487b7160e01b600052602260045260246000fd5b50919050565b601f8211156200029257600081815260208120601f850160051c810160208610156200026d5750805b601f850160051c820191505b818110156200028e5782815560010162000279565b5050505b505050565b81516001600160401b03811115620002b357620002b3620000d9565b620002cb81620002c4845462000208565b8462000244565b602080601f831160018114620003035760008415620002ea5750858301515b600019600386901b1c1916600185901b1785556200028e565b600085815260208120601f198616915b82811015620003345788860151825594840194600190910190840162000313565b5085821015620003535787850151600019600388901b60f8161c191681555b5050505050600190811b01905550565b611eef80620003736000396000f3fe6080604052600436106101355760003560e01c80638da5cb5b116100ab578063b2dc60981161006f578063b2dc60981461035c578063b88d4fde1461036f578063c87b56dd1461038f578063e985e9c5146103af578063f2938765146103f8578063f2fde38b1461041857600080fd5b80638da5cb5b146102c75780639012c4a8146102e557806395d89b41146103055780639a343cfe1461031a578063a22cb4651461033c57600080fd5b80633ccfd60b116100fd5780633ccfd60b1461020b57806342842e0e146102135780636352211e146102335780636653d0f51461025357806370a0823114610284578063715018a6146102b257600080fd5b806301ffc9a71461013a57806306fdde031461016f578063081812fc14610191578063095ea7b3146101c957806323b872dd146101eb575b600080fd5b34801561014657600080fd5b5061015a6101553660046117d7565b610438565b60405190151581526020015b60405180910390f35b34801561017b57600080fd5b5061018461048a565b6040516101669190611844565b34801561019d57600080fd5b506101b16101ac366004611857565b61051c565b6040516001600160a01b039091168152602001610166565b3480156101d557600080fd5b506101e96101e436600461188c565b610543565b005b3480156101f757600080fd5b506101e96102063660046118b6565b61065d565b6101e961068e565b34801561021f57600080fd5b506101e961022e3660046118b6565b6106e6565b34801561023f57600080fd5b506101b161024e366004611857565b610701565b34801561025f57600080fd5b5061027361026e366004611857565b610761565b6040516101669594939291906118f2565b34801561029057600080fd5b506102a461029f36600461192c565b610837565b604051908152602001610166565b3480156102be57600080fd5b506101e96108bd565b3480156102d357600080fd5b506006546001600160a01b03166101b1565b3480156102f157600080fd5b506101e9610300366004611857565b6108d1565b34801561031157600080fd5b506101846108de565b34801561032657600080fd5b5061032f6108ed565b6040516101669190611947565b34801561034857600080fd5b506101e96103573660046119e5565b610a13565b6101e961036a366004611aad565b610a1e565b34801561037b57600080fd5b506101e961038a366004611af6565b610a74565b34801561039b57600080fd5b506101846103aa366004611857565b610aac565b3480156103bb57600080fd5b5061015a6103ca366004611b72565b6001600160a01b03918216600090815260056020908152604080832093909416825291909152205460ff1690565b34801561040457600080fd5b5061032f61041336600461192c565b610b20565b34801561042457600080fd5b506101e961043336600461192c565b610d17565b60006001600160e01b031982166380ac58cd60e01b148061046957506001600160e01b03198216635b5e139f60e01b145b8061048457506301ffc9a760e01b6001600160e01b03198316145b92915050565b60606000805461049990611ba5565b80601f01602080910402602001604051908101604052809291908181526020018280546104c590611ba5565b80156105125780601f106104e757610100808354040283529160200191610512565b820191906000526020600020905b8154815290600101906020018083116104f557829003601f168201915b5050505050905090565b600061052782610d8d565b506000908152600460205260409020546001600160a01b031690565b600061054e82610701565b9050806001600160a01b0316836001600160a01b0316036105c05760405162461bcd60e51b815260206004820152602160248201527f4552433732313a20617070726f76616c20746f2063757272656e74206f776e656044820152603960f91b60648201526084015b60405180910390fd5b336001600160a01b03821614806105dc57506105dc81336103ca565b61064e5760405162461bcd60e51b815260206004820152603d60248201527f4552433732313a20617070726f76652063616c6c6572206973206e6f7420746f60448201527f6b656e206f776e6572206f7220617070726f76656420666f7220616c6c00000060648201526084016105b7565b6106588383610dec565b505050565b6106673382610e5a565b6106835760405162461bcd60e51b81526004016105b790611bdf565b610658838383610ed9565b61069661103d565b60006106aa6006546001600160a01b031690565b6040519091506001600160a01b038216904780156108fc02916000818181858888f193505050501580156106e2573d6000803e3d6000fd5b5050565b61065883838360405180602001604052806000815250610a74565b6000818152600260205260408120546001600160a01b0316806104845760405162461bcd60e51b8152602060048201526018602482015277115490cdcc8c4e881a5b9d985b1a59081d1bdad95b88125160421b60448201526064016105b7565b6009818154811061077157600080fd5b906000526020600020906004020160009150905080600001805461079490611ba5565b80601f01602080910402602001604051908101604052809291908181526020018280546107c090611ba5565b801561080d5780601f106107e25761010080835404028352916020019161080d565b820191906000526020600020905b8154815290600101906020018083116107f057829003601f168201915b50505050600183015460028401546003909401549293909290915060ff8082169161010090041685565b60006001600160a01b0382166108a15760405162461bcd60e51b815260206004820152602960248201527f4552433732313a2061646472657373207a65726f206973206e6f7420612076616044820152683634b21037bbb732b960b91b60648201526084016105b7565b506001600160a01b031660009081526003602052604090205490565b6108c561103d565b6108cf6000611097565b565b6108d961103d565b600855565b60606001805461049990611ba5565b60606009805480602002602001604051908101604052809291908181526020016000905b82821015610a0a57838290600052602060002090600402016040518060a001604052908160008201805461094490611ba5565b80601f016020809104026020016040519081016040528092919081815260200182805461097090611ba5565b80156109bd5780601f10610992576101008083540402835291602001916109bd565b820191906000526020600020905b8154815290600101906020018083116109a057829003601f168201915b50505091835250506001828101546020808401919091526002840154604084015260039093015460ff80821660608501526101009091041660809092019190915291835292019101610911565b50505050905090565b6106e23383836110e9565b6008543414610a685760405162461bcd60e51b8152602060048201526016602482015275151a1948199959481a5cc81b9bdd0818dbdc9c9958dd60521b60448201526064016105b7565b610a71816111b7565b50565b610a7e3383610e5a565b610a9a5760405162461bcd60e51b81526004016105b790611bdf565b610aa6848484846112f5565b50505050565b6060610ab782610d8d565b6000610ace60408051602081019091526000815290565b90506000815111610aee5760405180602001604052806000815250610b19565b80610af884611328565b604051602001610b09929190611c2c565b6040516020818303038152906040525b9392505050565b60606000610b2d83610837565b67ffffffffffffffff811115610b4557610b45611a21565b604051908082528060200260200182016040528015610bae57816020015b610b9b6040518060a00160405280606081526020016000815260200160008152602001600060ff168152602001600060ff1681525090565b815260200190600190039081610b635790505b5090506000805b600954811015610d0e57846001600160a01b0316610bd282610701565b6001600160a01b031603610cfc5760098181548110610bf357610bf3611c5b565b90600052602060002090600402016040518060a0016040529081600082018054610c1c90611ba5565b80601f0160208091040260200160405190810160405280929190818152602001828054610c4890611ba5565b8015610c955780601f10610c6a57610100808354040283529160200191610c95565b820191906000526020600020905b815481529060010190602001808311610c7857829003601f168201915b5050509183525050600182015460208201526002820154604082015260039091015460ff8082166060840152610100909104166080909101528351849084908110610ce257610ce2611c5b565b60200260200101819052508180610cf890611c71565b9250505b80610d0681611c71565b915050610bb5565b50909392505050565b610d1f61103d565b6001600160a01b038116610d845760405162461bcd60e51b815260206004820152602660248201527f4f776e61626c653a206e6577206f776e657220697320746865207a65726f206160448201526564647265737360d01b60648201526084016105b7565b610a7181611097565b6000818152600260205260409020546001600160a01b0316610a715760405162461bcd60e51b8152602060048201526018602482015277115490cdcc8c4e881a5b9d985b1a59081d1bdad95b88125160421b60448201526064016105b7565b600081815260046020526040902080546001600160a01b0319166001600160a01b0384169081179091558190610e2182610701565b6001600160a01b03167f8c5be1e5ebec7d5bd14f71427d1e84f3dd0314c0f7b2291e5b200ac8c7c3b92560405160405180910390a45050565b600080610e6683610701565b9050806001600160a01b0316846001600160a01b03161480610ead57506001600160a01b0380821660009081526005602090815260408083209388168352929052205460ff165b80610ed15750836001600160a01b0316610ec68461051c565b6001600160a01b0316145b949350505050565b826001600160a01b0316610eec82610701565b6001600160a01b031614610f125760405162461bcd60e51b81526004016105b790611c98565b6001600160a01b038216610f745760405162461bcd60e51b8152602060048201526024808201527f4552433732313a207472616e7366657220746f20746865207a65726f206164646044820152637265737360e01b60648201526084016105b7565b826001600160a01b0316610f8782610701565b6001600160a01b031614610fad5760405162461bcd60e51b81526004016105b790611c98565b600081815260046020908152604080832080546001600160a01b03199081169091556001600160a01b0387811680865260038552838620805460001901905590871680865283862080546001019055868652600290945282852080549092168417909155905184937fddf252ad1be2c89b69c2b068fc378daa952ba7f163c4a11628f55a4df523b3ef91a4505050565b6006546001600160a01b031633146108cf5760405162461bcd60e51b815260206004820181905260248201527f4f776e61626c653a2063616c6c6572206973206e6f7420746865206f776e657260448201526064016105b7565b600680546001600160a01b038381166001600160a01b0319831681179093556040519116919082907f8be0079c531659141344cd1fd0a4f28419497f9722a3daafe3b4186f6b6457e090600090a35050565b816001600160a01b0316836001600160a01b03160361114a5760405162461bcd60e51b815260206004820152601960248201527f4552433732313a20617070726f766520746f2063616c6c65720000000000000060448201526064016105b7565b6001600160a01b03838116600081815260056020908152604080832094871680845294825291829020805460ff191686151590811790915591519182527f17307eab39ab6107e8899845ad3d59bd9653f200f220920489ca2b5937696c31910160405180910390a3505050565b60006111c360646113bb565b905060006111d7662386f26fc100006113bb565b6040805160a081018252858152600754602082015290810182905260016060820181905260ff851660808301526009805491820181556000528151929350909182916004027f6e1540171b6c0c960b71a7020d9f60077f6af931a8bbf590da0223dacf75c7af0190819061124b9082611d2b565b50602082015160018201556040820151600282015560608201516003909101805460809093015160ff9081166101000261ffff1990941692169190911791909117905560075461129c903390611410565b600754604080519182526020820184905233917fc81287d69336ed6179a74edf4b147581f3862c1a76597d081fbe0c54fa099ca0910160405180910390a2600780549060006112ea83611c71565b919050555050505050565b611300848484610ed9565b61130c8484848461142a565b610aa65760405162461bcd60e51b81526004016105b790611deb565b606060006113358361152b565b600101905060008167ffffffffffffffff81111561135557611355611a21565b6040519080825280601f01601f19166020018201604052801561137f576020820181803683370190505b5090508181016020015b600019016f181899199a1a9b1b9c1cb0b131b232b360811b600a86061a8153600a850494508461138957509392505050565b60008042336040516020016113ec92919091825260601b6bffffffffffffffffffffffff1916602082015260340190565b60408051601f1981840301815291905280516020909101209050610b198382611e3d565b6106e2828260405180602001604052806000815250611603565b60006001600160a01b0384163b1561152057604051630a85bd0160e11b81526001600160a01b0385169063150b7a029061146e903390899088908890600401611e5f565b6020604051808303816000875af19250505080156114a9575060408051601f3d908101601f191682019092526114a691810190611e9c565b60015b611506573d8080156114d7576040519150601f19603f3d011682016040523d82523d6000602084013e6114dc565b606091505b5080516000036114fe5760405162461bcd60e51b81526004016105b790611deb565b805181602001fd5b6001600160e01b031916630a85bd0160e11b149050610ed1565b506001949350505050565b60008072184f03e93ff9f4daa797ed6e38ed64bf6a1f0160401b831061156a5772184f03e93ff9f4daa797ed6e38ed64bf6a1f0160401b830492506040015b6d04ee2d6d415b85acef81000000008310611596576d04ee2d6d415b85acef8100000000830492506020015b662386f26fc1000083106115b457662386f26fc10000830492506010015b6305f5e10083106115cc576305f5e100830492506008015b61271083106115e057612710830492506004015b606483106115f2576064830492506002015b600a83106104845760010192915050565b61160d8383611636565b61161a600084848461142a565b6106585760405162461bcd60e51b81526004016105b790611deb565b6001600160a01b03821661168c5760405162461bcd60e51b815260206004820181905260248201527f4552433732313a206d696e7420746f20746865207a65726f206164647265737360448201526064016105b7565b6000818152600260205260409020546001600160a01b0316156116f15760405162461bcd60e51b815260206004820152601c60248201527f4552433732313a20746f6b656e20616c7265616479206d696e7465640000000060448201526064016105b7565b6000818152600260205260409020546001600160a01b0316156117565760405162461bcd60e51b815260206004820152601c60248201527f4552433732313a20746f6b656e20616c7265616479206d696e7465640000000060448201526064016105b7565b6001600160a01b038216600081815260036020908152604080832080546001019055848352600290915280822080546001600160a01b0319168417905551839291907fddf252ad1be2c89b69c2b068fc378daa952ba7f163c4a11628f55a4df523b3ef908290a45050565b6001600160e01b031981168114610a7157600080fd5b6000602082840312156117e957600080fd5b8135610b19816117c1565b60005b8381101561180f5781810151838201526020016117f7565b50506000910152565b600081518084526118308160208601602086016117f4565b601f01601f19169290920160200192915050565b602081526000610b196020830184611818565b60006020828403121561186957600080fd5b5035919050565b80356001600160a01b038116811461188757600080fd5b919050565b6000806040838503121561189f57600080fd5b6118a883611870565b946020939093013593505050565b6000806000606084860312156118cb57600080fd5b6118d484611870565b92506118e260208501611870565b9150604084013590509250925092565b60a08152600061190560a0830188611818565b602083019690965250604081019390935260ff918216606084015216608090910152919050565b60006020828403121561193e57600080fd5b610b1982611870565b60006020808301818452808551808352604092508286019150828160051b87010184880160005b838110156119d757603f19898403018552815160a0815181865261199482870182611818565b838b0151878c0152898401518a88015260608085015160ff908116918901919091526080948501511693909601929092525050938601939086019060010161196e565b509098975050505050505050565b600080604083850312156119f857600080fd5b611a0183611870565b915060208301358015158114611a1657600080fd5b809150509250929050565b634e487b7160e01b600052604160045260246000fd5b600067ffffffffffffffff80841115611a5257611a52611a21565b604051601f8501601f19908116603f01168101908282118183101715611a7a57611a7a611a21565b81604052809350858152868686011115611a9357600080fd5b858560208301376000602087830101525050509392505050565b600060208284031215611abf57600080fd5b813567ffffffffffffffff811115611ad657600080fd5b8201601f81018413611ae757600080fd5b610ed184823560208401611a37565b60008060008060808587031215611b0c57600080fd5b611b1585611870565b9350611b2360208601611870565b925060408501359150606085013567ffffffffffffffff811115611b4657600080fd5b8501601f81018713611b5757600080fd5b611b6687823560208401611a37565b91505092959194509250565b60008060408385031215611b8557600080fd5b611b8e83611870565b9150611b9c60208401611870565b90509250929050565b600181811c90821680611bb957607f821691505b602082108103611bd957634e487b7160e01b600052602260045260246000fd5b50919050565b6020808252602d908201527f4552433732313a2063616c6c6572206973206e6f7420746f6b656e206f776e6560408201526c1c881bdc88185c1c1c9bdd9959609a1b606082015260800190565b60008351611c3e8184602088016117f4565b835190830190611c528183602088016117f4565b01949350505050565b634e487b7160e01b600052603260045260246000fd5b600060018201611c9157634e487b7160e01b600052601160045260246000fd5b5060010190565b60208082526025908201527f4552433732313a207472616e736665722066726f6d20696e636f72726563742060408201526437bbb732b960d91b606082015260800190565b601f82111561065857600081815260208120601f850160051c81016020861015611d045750805b601f850160051c820191505b81811015611d2357828155600101611d10565b505050505050565b815167ffffffffffffffff811115611d4557611d45611a21565b611d5981611d538454611ba5565b84611cdd565b602080601f831160018114611d8e5760008415611d765750858301515b600019600386901b1c1916600185901b178555611d23565b600085815260208120601f198616915b82811015611dbd57888601518255948401946001909101908401611d9e565b5085821015611ddb5787850151600019600388901b60f8161c191681555b5050505050600190811b01905550565b60208082526032908201527f4552433732313a207472616e7366657220746f206e6f6e20455243373231526560408201527131b2b4bb32b91034b6b83632b6b2b73a32b960711b606082015260800190565b600082611e5a57634e487b7160e01b600052601260045260246000fd5b500690565b6001600160a01b0385811682528416602082015260408101839052608060608201819052600090611e9290830184611818565b9695505050505050565b600060208284031215611eae57600080fd5b8151610b19816117c156fea2646970667358221220e62867d35b38a870bc932b1174e9cdfa169ec0fbbcb327fb8a922648f9f8293d64736f6c63430008120033",
  "immutableReferences": {},
  "source": "//  SPDX-License-Identifier: MLT\r\n\r\npragma solidity ^0.8.0;\r\n\r\nimport \"@openzeppelin/contracts/token/ERC721/ERC721.sol\";\r\nimport \"@openzeppelin/contracts/access/Ownable.sol\";\r\n\r\n\r\ncontract SwordToken is ERC721, Ownable {\r\n    constructor (string memory _name, string memory _symbol)\r\n        ERC721(_name, _symbol)\r\n    {}\r\n\r\n    uint256 COUNTER;\r\n\r\n    uint256 fee = 0.01 ether;\r\n\r\n    struct Sword {\r\n        string name;\r\n        uint256 id;\r\n        uint256 dna;\r\n        uint8 level;\r\n        uint8 rarity;\r\n    }\r\n\r\n    Sword[] public swords;\r\n\r\n    event NewSword(address indexed owner, uint256 id, uint256 dna);\r\n\r\n    //Helpers\r\n    //randomness is not that secure -- look into keccak hash\r\n    function _createRandomNum(uint256 _mod) internal view returns(uint256) {\r\n        uint256 randomNum = uint256(keccak256(abi.encodePacked(block.timestamp, msg.sender)));\r\n        return randomNum % _mod;\r\n    }\r\n\r\n    function updateFee(uint256 _fee) external onlyOwner(){\r\n            fee = _fee;\r\n    }\r\n\r\n    function withdraw() external payable onlyOwner() {\r\n        address payable _owner = payable(owner());\r\n        _owner.transfer(address(this).balance);\r\n    }\r\n\r\n    //Creation\r\n    function _createSword(string memory _name) internal{\r\n        uint8 randRarity = uint8(_createRandomNum(100));\r\n        uint256 randDna = _createRandomNum(10**16);\r\n        Sword memory newSword = Sword(_name, COUNTER, randDna, 1, randRarity);\r\n        swords.push(newSword);\r\n        _safeMint(msg.sender, COUNTER); //--this doesn't emit in events\r\n        emit NewSword(msg.sender, COUNTER, randDna); //--this doesn't emit in events\r\n        COUNTER++;\r\n    }\r\n\r\n    function createRandomSword(string memory _name) public payable {\r\n        require(msg.value == fee, \"The fee is not correct\");\r\n        _createSword(_name);\r\n    }\r\n\r\n    //Getters\r\n    function getSwords() public view returns(Sword[] memory){\r\n        return swords;\r\n    }\r\n\r\n    function getOwnerSwords(address _owner) public view returns (Sword[] memory) {\r\n        //going through all the swords and check the ones the user has\r\n        //use ERC721 balanceOf\r\n        Sword[] memory result = new Sword[](balanceOf(_owner));\r\n        uint256 counter = 0;\r\n        for(uint256 i = 0; i < swords.length; i++){\r\n            if(ownerOf(i) == _owner){\r\n                result[counter] = swords[i];\r\n                counter++;\r\n            }\r\n        }\r\n        return result;\r\n    }\r\n}",
  "sourcePath": "D:\\finalYearProject\\new approach\\Game\\contracts\\SwordToken.sol",
  "compiler": {
    "name": "solc",
    "version": "0.8.18+commit.87f61d96.Emscripten.clang"
  },
  "schemaVersion": "3.4.12",
  "updatedAt": "2023-03-16T14:10:54.823Z",
  "networkType": "ethereum",
  "devdoc": {
    "events": {
      "Approval(address,address,uint256)": {
        "details": "Emitted when `owner` enables `approved` to manage the `tokenId` token."
      },
      "ApprovalForAll(address,address,bool)": {
        "details": "Emitted when `owner` enables or disables (`approved`) `operator` to manage all of its assets."
      },
      "Transfer(address,address,uint256)": {
        "details": "Emitted when `tokenId` token is transferred from `from` to `to`."
      }
    },
    "kind": "dev",
    "methods": {
      "approve(address,uint256)": {
        "details": "See {IERC721-approve}."
      },
      "balanceOf(address)": {
        "details": "See {IERC721-balanceOf}."
      },
      "getApproved(uint256)": {
        "details": "See {IERC721-getApproved}."
      },
      "isApprovedForAll(address,address)": {
        "details": "See {IERC721-isApprovedForAll}."
      },
      "name()": {
        "details": "See {IERC721Metadata-name}."
      },
      "owner()": {
        "details": "Returns the address of the current owner."
      },
      "ownerOf(uint256)": {
        "details": "See {IERC721-ownerOf}."
      },
      "renounceOwnership()": {
        "details": "Leaves the contract without owner. It will not be possible to call `onlyOwner` functions anymore. Can only be called by the current owner. NOTE: Renouncing ownership will leave the contract without an owner, thereby removing any functionality that is only available to the owner."
      },
      "safeTransferFrom(address,address,uint256)": {
        "details": "See {IERC721-safeTransferFrom}."
      },
      "safeTransferFrom(address,address,uint256,bytes)": {
        "details": "See {IERC721-safeTransferFrom}."
      },
      "setApprovalForAll(address,bool)": {
        "details": "See {IERC721-setApprovalForAll}."
      },
      "supportsInterface(bytes4)": {
        "details": "See {IERC165-supportsInterface}."
      },
      "symbol()": {
        "details": "See {IERC721Metadata-symbol}."
      },
      "tokenURI(uint256)": {
        "details": "See {IERC721Metadata-tokenURI}."
      },
      "transferFrom(address,address,uint256)": {
        "details": "See {IERC721-transferFrom}."
      },
      "transferOwnership(address)": {
        "details": "Transfers ownership of the contract to a new account (`newOwner`). Can only be called by the current owner."
      }
    },
    "version": 1
  },
  "userdoc": {
    "kind": "user",
    "methods": {},
    "version": 1
  }
}